:020000040800F2
:10000000000002207D1C0008B9180008BB18000879
:10001000BD180008BF180008C11800080000000043
:10002000000000000000000000000000216900083E
:10003000C318000800000000C169000861660008DC
:10004000CD1C0008CD1C0008CD1C0008CD1C0008EC
:10005000CD1C0008CD1C0008CD1C0008CD1C0008DC
:10006000CD1C0008CD1C0008CD1C0008CD1C0008CC
:10007000CD1C0008CD1C0008CD1C0008CD1C0008BC
:10008000CD1C0008CD1C0008CD1C0008C5180008B8
:10009000D5180008E5180008F5180008CD1C000860
:1000A000CD1C0008CD1C0008CD1C0008CD1C00088C
:1000B000CD1C0008CD1C0008CD1C0008CD1C00087C
:1000C000CD1C0008CD1C0008CD1C0008CD1C00086C
:1000D000CD1C000805190008CD1C0008CD1C000827
:1000E000CD1C0008CD1C0008CD1C0008CD1C00084C
:1000F000CD1C0008CD1C0008CD1C0008CD1C00083C
:10010000CD1C0008CD1C0008CD1C0008CD1C00082B
:10011000CD1C0008CD1C000815190008CD1C0008D6
:10012000CD1C000825190008CD1C0008CD1C0008B6
:10013000CD1C0008CD1C0008CD1C0008CD1C0008FB
:10014000CD1C0008CD1C0008CD1C00083519000886
:10015000CD1C000845190008CD1C000855190008E1
:10016000CD1C0008CD1C0008CD1C0008CD1C0008CB
:10017000CD1C0008CD1C0008CD1C000800000000AC
:08018000CD1C0008CD1C000895
:1001900010B5054C237833B9044B13B10448AFF3C1
:1001A00000800123237010BD3C09002000000000E6
:1001B000749A000808B5034B1BB103490348AFF319
:1001C000008008BD0000000040090020749A00086B
:1001D00053B94AB9002908BF00281CBF4FF0FF31AE
:1001E0004FF0FF3001F0C0B8ADF1080C6DE904CE5E
:1001F00000F006F8DDF804E0DDE9022304B0704702
:100200002DE9F047089D04468C46002B40F0838082
:100210008A42174647D9B2FA82F242B1C2F12000AF
:1002200024FA00F09140974040EA010C94404FEAD4
:100230001748230CBCFBF8F61FFA87FE08FB16C113
:1002400043EA014306FB0EF1994209D9FB1806F176
:10025000FF3080F01981994240F21681023E3B4402
:100260005B1AA4B2B3FBF8F008FB103344EA034472
:1002700000FB0EFEA64509D93C1900F1FF3380F0C2
:100280000581A64540F2028102383C4440EA06401E
:10029000A4EB0E0400261DB1D4400023C5E90043A1
:1002A0003146BDE8F08702B9FFDEB2FA82F2002AD9
:1002B00050D1CB1B4FEA174E1FFA87F80126B3FB2C
:1002C000FEFC210C0EFB1C3341EA034108FB0CF33E
:1002D0008B4207D979180CF1FF3002D28B4200F221
:1002E000E9808446C91AA3B2B1FBFEF00EFB1011DF
:1002F00043EA014408FB00F8A04507D93C1900F186
:10030000FF3302D2A04500F2D9801846A4EB0804BE
:1003100040EA0C40BFE78B4209D9002D00F0B180C4
:100320000026C5E9000130463146BDE8F087B3FA42
:1003300083F6002E4AD18B4202D3824200F2B8806B
:10034000841A61EB030101208C46002DA8D0C5E979
:10035000004CA5E7C2F1200320FA03F6974001FA0A
:1003600002F04FEA174ED9403043030CB1FBFEF6C2
:100370001FFA87F80EFB161143EA014306FB08F14A
:10038000994204FA02F409D9FB1806F1FF3C80F007
:100390008D80994240F28A80023E3B445B1A81B2D2
:1003A000B3FBFEF00EFB103341EA034100FB08F300
:1003B0008B4207D9791800F1FF3C73D28B4271D977
:1003C00002383944CB1A40EA064678E7C6F1200CD9
:1003D00003FA06F422FA0CF31C4320FA0CF701FA94
:1003E00006F34FEA144E21FA0CF11F433B0CB1FB0C
:1003F000FEF91FFA84F80EFB191143EA014109FBCB
:1004000008FA8A4502FA06F200FA06F308D96118DA
:1004100009F1FF3048D28A4546D9A9F102092144A1
:10042000A1EB0A01BFB2B1FBFEF00EFB101147EACF
:10043000014700FB08F8B84507D9E71900F1FF317B
:100440002ED2B8452CD90238274440EA0940A7EB00
:100450000807A0FB02894F45C64649461AD317D064
:100460005DB1B3EB0E0267EB010707FA0CFCF2403B
:100470004CEA0202F740C5E9002700263146BDE8F4
:10048000F0872E4628460BE70646E9E61846FDE6C5
:100490004345E5D2B8EB020E69EB04010138DFE712
:1004A0000846D2E760468DE78146B9E7664675E7BC
:1004B00030464AE7ACF1020C394413E702383C44B9
:1004C00024E700BF03685A004CBF43F0004323F009
:1004D00000431844704700BF2DE9F84329B34F1E6D
:1004E000044615463E464FF0000808EB060101EBB6
:1004F000D171491004EBC1094846FFF7E3FF0346F9
:10050000C80008308F42204409D0AB4209D8FFF719
:10051000D9FF0138A8420AD201F10108E5E7AB4250
:1005200005D9884501D04E1EDFE74FF00009484647
:10053000BDE8F883012807D0022807D0044B002823
:100540000CBF1846002070470248704702487047A9
:10055000F90B0008FD0B0008010C000830B5234B17
:1005600083B004468D1E3BB301A92846AFF300803B
:10057000E8B101992A46FFF7AFFF0146B8B1FFF78E
:10058000A1FF4B68A064012B2BD0002B01F10400CC
:1005900023DBFFF797FF0023C4E913030368002B55
:1005A00010DBFFF78FFF2061002003B030BD002378
:1005B0000920236103B030BD0D490E48091AC91046
:1005C0000191D7E7C3F30360FFF7B4FF0028206170
:1005D00014BF0020092003B030BD0123C4E9130378
:1005E000DCE7002323610520DFE700BF00000000F7
:1005F0007C9C0008B49B00080368DA0710B5044629
:1006000006D49B0700F1480009D500F04BFC236895
:10061000590709D51A070ED5DB0613D510BD00F012
:1006200039FC23685907F5D404F1D00000F042FCEE
:1006300023681A07F0D404F5A87000F043FC23687F
:10064000DB06EBD404F5E870BDE8104000F07EBC9A
:100650000346006800B11844704700BF0920704786
:10066000704700BF70B504460E46316C2046FFF758
:1006700075FF054688B9336C6361324623692146AC
:10068000012098470828F0D0072806D12846316C69
:10069000FFF7E6FF301D00F0F1FB08F013F900BF93
:1006A0002DE9F0470D1D064614460FCDADF5727DC0
:1006B0000DF10C0CACE80F000FCDACE80F000FCD26
:1006C000ACE80F0095E80F0002ADF768D6F8188087
:1006D0008CE80F0000232B6021E02B6C73614FF43A
:1006E000F07229467AA800F041FE33697AAA3146B1
:1006F00050469847889BCDE9005821466B64814657
:10070000334632460120B8470446E8B94FF4F07248
:100710007AA9284600F02AFEB9F1080F1BD1296CEE
:100720003046FFF71BFF09345FFA84FA8146002840
:10073000D3D0AB6B4AF01001CDE9005832466B6460
:1007400001203346B84708B14FF0090948460DF576
:10075000727DBDE8F087B9F1070FF5D12046296C0D
:10076000FFF77EFF03A800F089FB00BF406C7047D5
:10077000F0B5CB6B0B640E1D0F4605460FCEF9B0DE
:1007800001AC0FC40FCE0FC40FCE0FC496E80F00FC
:100790004FF0FF3684E80F00009606E02B696A46AA
:1007A000294698470828044608D110992846FFF79B
:1007B000D5FE0028F2D0092079B0F0BD6846FFF7D9
:1007C0001BFF062CF7D139462846FFF74BFF00BF29
:1007D00030B4DD6BC160826119461D64002230BCFB
:1007E0005EE700BF70B5C66843690B64AEB90369C4
:1007F0000A4604460D46014602209847072805D0C0
:1008000008280FD129462046FFF72CFF3046296CD7
:10081000FFF726FF281D00F031FB0122FFF740FF04
:1008200008F050F808F04EF8C2681AB1CA6B0A64B2
:10083000002235E79CE700BF704700BF8368014690
:100840000BB1012018477047012912D009D873B99C
:100850000F2A0CD800EB820218465368009A1360E6
:1008600070470339012994BF0120022070470220FC
:1008700070470846704700BF10B584B0002303AC32
:100880000A4600941946FFF7DFFF039804B010BD35
:10089000012912D009D873B90F2A0CD800EB8200B5
:1008A000009A12684260184670470339012994BFC4
:1008B000012002207047022070470846704700BFA1
:1008C00010B584B0002303AC039200940A46194685
:1008D000FFF7DEFF04B010BDF0B5D36B1364151D38
:1008E0008C4606460FCDADF50F7D17AC0FC40FCD6E
:1008F0000FC40FCD0FC495E80F004FF0FF3784E809
:100900000F006546169710E0FFF7DAFF294616A894
:10091000B047034616AA6946082083B9049B984746
:10092000052804460CD0092809D026996846FFF707
:1009300015FE03466A460C2116A8002BE4D00924B4
:1009400016A8FFF759FE20460DF50F7DF0BD00BF3C
:100950002DE9F04FCC6C89B00D4654F8041B069479
:10096000174600F003081E46002B79D00B0CDAB2B4
:1009700009048DF81D30022304EB820405918DF8E3
:100980001C302B6DB8F1020F08BFAC6B13F00103E4
:100990000CD0384605A900F073FB18B9082009B03F
:1009A000BDE8F08F092009B0BDE8F08FD4F800A0B1
:1009B000BAF1000FEDD0019300F008030293022E6C
:1009C0004AD0B4F800A0B4F802900434AA6C29F01C
:1009D000010B0F2138469344FFF74EFF834539D86A
:1009E0002AF001025A44824294BF002001204FEABB
:1009F000490303F002030AF0010A43EA0A03012B48
:100A000049D0022B32D0002BCCD1B8F1000F02D04C
:100A1000002840F0CD800434D4F800A0BAF1000FD3
:100A2000CDD105A9384600F02BFB0028BAD1019B97
:100A3000002BB3D00F213846FFF71EFF0E210246D0
:100A40003846FFF73DFF38466A4A0F21FFF738FF67
:100A50000720A8E70020CAE7D4F804900834B5E7D7
:100A6000090203230591ADF81C308AE7236823F0BF
:100A7000004BB8F1000F45D128B1029A002A5CD092
:100A8000BBF1000F74D0002B00DA04340BF1010B22
:100A900004EB8B04C0E7B8F1000F19D1B0B1D4E971
:100AA0000023991C4FEAD2723FF47CAF05F1580144
:100AB0000133049100F09080201DFFF7C9FD04ABC5
:100AC00001462846AFF3008000285BD10834A3E735
:100AD0000D213846D5F82090FFF7CEFE8145F5D19F
:100AE000AB6A9C42F2D12046FFF7ECFC0F21024694
:100AF0003846FFF7E5FE38462A460021FFF7E0FEBC
:100B0000072050E70D213846D5F82090FFF7B4FEB6
:100B1000814501D02368B6E7AB6A9C42FAD1042232
:100B20000021C5E90B12A318C5F828B06B63236830
:100B30008B4259DB01230193A8E705F15803CDF857
:100B40000C8004F1040AB04691461E460DE004965E
:100B5000FFF77EFD04AB014600222846AFF300807C
:100B600009F101090AF1040AE8B9D9455046EED164
:100B700038460D21FFF780FE049B2862C5E9093441
:100B8000062010E781460D213846FFF775FEB9F1C2
:100B9000020F286225D12B46049A43F82C2F6B6252
:100BA000AC620620FFE646462368DDF80C806AE763
:100BB0002046FFF787FC04340246AC6328461446FF
:100BC000AFF3008000283FF4EDAE384622460F21F7
:100BD000FFF776FE0720E6E638460D21FFF74CFECC
:100BE0002862049B6B62DBE70BF1010004EB8000E1
:100BF0007AE700BF000000000023A9E60123A7E672
:100C00000223A5E62DE9F0430646C3B015461C466F
:100C1000042900F2B980DFE801F09A53B7290300F4
:100C2000002C40F0B180102A00F2AE800368D80694
:100C300000F1F38020AF384600F092F9B06B00234A
:100C4000012404FA03F22A42014604D051F8042B8D
:100C500047F8232008460133042BF2D1B06338460D
:100C600000F074F9002043B0BDE8F083032C40F09D
:100C70008B8094B204EB1243102B4FEA124500F222
:100C8000838003681F0700F1D08020AF384600F052
:100C90003BF907EBC501B56B54B10B46E81A01EB04
:100CA000C401E4001A5843F8042B8B42FAD12544BE
:100CB0003846B56300F006F9002043B0BDE8F08384
:100CC000012C4FEA124895B25AD0052C5CD108EBA2
:100CD0000509B9F1200F57D8B8F10F0F77D9A946F8
:100CE000002D40F08880B36B6DB320AF4FF000094A
:100CF00007EBC807043F03EBC50553F8041B47F88F
:100D0000041FAB42F9D1B9F1000F0FD06F46414635
:100D1000102938BF102107EBC101843903EBC90545
:100D200053F8040B41F8040FAB42F9D1012C00F049
:100D30008480B8F10F0FB56345D9B9F1000F02D027
:100D4000684600F0B7F8002043B0BDE8F083DCB996
:100D5000876B2346012094B206F1040C00FA03F2DB
:100D60002242394604D051F8042B4CF823200F4678
:100D70000133102BF2D115F40050E4D1B76304E035
:100D800008EB0503102B03D9022043B0BDE8F08324
:100D9000B8F10F0FF8D83368DA0706D5304623F0DC
:100DA000030340F8483B00F079F820AF384600F0E4
:100DB00075F8B36B002D99D11D460435B5633846DF
:100DC00000F068F8BFE720A800F06CF8B5E7B9F1CB
:100DD000100F40D9A9F110093368D90708D523F0BD
:100DE0000103304643F0020340F8483B00F05EF850
:100DF000B9F1000F32D033685A0720D4B8F10F0F81
:100E000025D96F463846C8F1100500F057F8002D77
:100E1000B36B7FF77CAF20AF6AE723F0100333603A
:100E200006F5E87000F09CF804E723F0080303607F
:100E300000F5A87000F068F827E720AFBDE730465E
:100E400023F0040340F8D03B00F038F8D6E720A8A0
:100E500000F02CF8D5E74FF00009BDE7B8F10F0F0F
:100E60003FF641AF20AF384600F020F8B36B002DBD
:100E70007FF43CAF384600F015F864E700F1340128
:100E800091E838009C46A6464CF8045D90E8FF0FB8
:100E9000E54600BD90EC210B704700BF80EC210BB4
:100EA000704700BF90EC200B704700BF80EC200B18
:100EB000704700BFD0EC200B704700BFC0EC200B88
:100EC000704700BFF0EC0201F0EC0211F0EC0221DF
:100ED000F0EC0231F0EC0241F0EC0251F0EC026176
:100EE000F0EC0271F0EC0281F0EC0291F0EC02A166
:100EF000F0EC02B1F0EC02C1F0EC02D1F0EC02E156
:100F0000F0EC02F1704700BFE0EC0201E0EC0211EE
:100F1000E0EC0221E0EC0231E0EC0241E0EC0251B5
:100F2000E0EC0261E0EC0271E0EC0281E0EC0291A5
:100F3000E0EC02A1E0EC02B1E0EC02C1E0EC02D195
:100F4000E0EC02E1E0EC02F1704700BFB0FC01818F
:100F5000B0FC0191B0FC01A1B0FC01B1704700BF31
:100F6000A0FC0181A0FC0191A0FC01A1A0FC01B1A9
:100F7000704700BFEC4600B52DE900502DE9FF1F7A
:100F80004FF000032DE90C0001A9FFF7F1FBDDF89C
:100F900040E012B0704700BFEC4600B52DE90050AC
:100FA0002DE9FF1F4FF000032DE90C0001A9FFF709
:100FB00019FCDDF840E012B0704700BFEC4600B508
:100FC0002DE900502DE9FF1F4FF000032DE90C0023
:100FD00001A9FFF729FCDDF840E012B0704700BF1F
:100FE000EC4600B52DE900502DE9FF1F4FF000033E
:100FF0002DE90C0001ABFFF7EBFBDDF840E012B090
:10100000704700BFEC4600B52DE900502DE9FF1FE9
:101010004FF000032DE90C0001AAFFF75DFCDDF89D
:1010200040E012B0704700BF027A7AB9437AA3B1A8
:101030004268013B10B4437213680321141D01720E
:101040001A024460026010BC180E70470368013A2F
:1010500002721A020260180E7047B020704700BF7B
:1010600000B585B003AA0023009219460C22FFF7B1
:10107000EBFB039805B05DF804FB00BFF0E700BF91
:101080002DE9F043054685B00E464FF00008304686
:10109000FFF7CAFFB028044600F0B280070620D54B
:1010A00000F0F003802B4DD0902B36D0A02B60D0D9
:1010B000B02B74D0C02B00F08B8000F0F803D02B45
:1010C0000BD100F00702013242F400220523012176
:1010D0002846FFF797FD0028D9D0092005B0BDE8C4
:1010E000F0830DF10C09002319468700CDF800901C
:1010F0000D222846FFF7A8FBFFB2039BCDF8009016
:10110000043760064CBFDF1BFF18002319460D2271
:1011100028460397FFF7BCFBB9E700F00D030D2B42
:10112000DBD003AF002300F00F02194600972846DA
:10113000FFF78AFB0023009719460D222846FFF788
:10114000A7FBA4E73046FFF76FFF24022043B0F56A
:10115000004FC2D004010023A2B219462846FFF76F
:1011600051FD0028B9D114F4004F18BF4FF0010809
:101170008DE7C24302F007034FF47F621A41010773
:1011800002F47F624FF0000348BF42F480421946E8
:101190002846FFF737FD00283FF479AF9DE7B128D7
:1011A00033D0B22800F08B80B32839D000F0FC0394
:1011B000B42B92D000F007020132012342F4002246
:1011C00019462846FFF71EFD00283FF460AF84E76C
:1011D000C62842D0C7284CD000F0F803C02B5BD003
:1011E000C82860D0C9287FF478AF3046FFF71CFFCD
:1011F000020300F00F0002F470220130024365E7A1
:10120000B8F1000F18D0002068E73046FFF70CFF58
:10121000024600283FF461AF10F0F003D0D05CE745
:101220003046FFF701FF010300F00F0001F47021C9
:10123000421C01230A43C3E703AC43460E22414646
:1012400000942846FFF700FB0094284643460F22EF
:101250004146FFF71DFB404640E73046FFF7E4FEFE
:10126000010300F00F0001F47021421C03230A4324
:10127000A6E73046FFF7D8FE024600283FF42DAF20
:1012800010F0F0037FF429AF04212846FFF7BAFCE1
:1012900000283FF4FCAE20E700F00F0201320323E8
:1012A00042F420228CE73046FFF7BEFE00F0F00249
:1012B00000F00F031032013343EA023206E7002345
:1012C0000DF10C090D221946CDF800902846FFF7C4
:1012D000BBFA3046FFF7A8FE02064FF002070CD516
:1012E000039B00F07F00B840034430460393FFF7B0
:1012F0009BFE030607F10707F2D4039BCDF800908D
:1013000000F07F0403F50172BC4000231444194629
:101310000D2228460394FFF7BBFAB8E610B5C26C5D
:1013200084B0536803248DF80C401B0202F10804BA
:101330000846D279019301A902948DF80D20FFF798
:101340009FFE04B010BD00BF08B5FFF797FE806C8C
:1013500008BD00BF08B5FFF791FEC06CC37902332A
:1013600000EB830008BD00BF704700BF844641EA20
:10137000000313F003036DD1403A41D351F8043B0D
:1013800040F8043B51F8043B40F8043B51F8043B5F
:1013900040F8043B51F8043B40F8043B51F8043B4F
:1013A00040F8043B51F8043B40F8043B51F8043B3F
:1013B00040F8043B51F8043B40F8043B51F8043B2F
:1013C00040F8043B51F8043B40F8043B51F8043B1F
:1013D00040F8043B51F8043B40F8043B51F8043B0F
:1013E00040F8043B51F8043B40F8043B51F8043BFF
:1013F00040F8043B51F8043B40F8043B403ABDD26E
:10140000303211D351F8043B40F8043B51F8043B0F
:1014100040F8043B51F8043B40F8043B51F8043BCE
:1014200040F8043B103AEDD20C3205D351F8043B9E
:1014300040F8043B043AF9D2043208D0D2071CBF6A
:1014400011F8013B00F8013B01D30B880380604693
:10145000704700BF082A13D38B078DD010F0030309
:101460008AD0C3F10403D21ADB071CBF11F8013B79
:1014700000F8013B80D331F8023B20F8023B7BE7C8
:10148000043AD9D3013A11F8013B00F8013BF9D2F3
:101490000B7803704B7843708B788370604670478D
:1014A00008B50D480D4B036007234360002383609C
:1014B000C3604FF4003202614FF480124261037640
:1014C00043768376C3760377437700F041FC00B917
:1014D00008BD00F011F9FBE7580900200064004046
:1014E00010B588B0002303930493059306930793E4
:1014F0000268254B9A4201D008B010BD0024019427
:1015000003F5EA331A6C42F000721A641A6C02F0A6
:1015100000720192019A02941A6B42F002021A635D
:101520001B6B03F002030293029B4FF4407303937F
:10153000022304930594032306930923079303A925
:10154000124801F097F822460521132000F0EAFD29
:10155000132000F01BFE22460521142000F0E2FDBE
:10156000142000F013FE22460521152000F0DAFDBC
:10157000152000F00BFE22460521162000F0D2FDBA
:10158000162000F003FEB7E70064004000040240AC
:1015900010B582B0002401940D4B1A6B42F4800206
:1015A0001A631B6B03F480030193019B2246052100
:1015B000392000F0B7FD392000F0E8FD2246052172
:1015C000452000F0AFFD452000F0E0FD02B010BD69
:1015D0000038024008B506F08FFE012005F0DAF869
:1015E000FBE7000008B50B4A00210B4805F074F832
:1015F0000A4B18600A4A00210A4805F06DF80A4BA8
:1016000018600A4A00210A4805F066F8094B18607C
:1016100008BD00BFAC9A0008D5150008800900205D
:10162000D09A0008A988000884090020F49A0008CC
:101630009F8800088809002070B58AB000240594AE
:1016400006940794089409940194234B1A6B42F072
:1016500002021A631A6B02F002020192019A0294CA
:101660001A6B42F040021A631A6B02F040020292B7
:10167000029A03941A6B42F001021A631A6B02F089
:1016800001020392039A04941A6B42F080021A63D7
:101690001B6B03F080030493049B104D22464FF410
:1016A000E051284601F0D0F84FF48053059301260D
:1016B00006960796089405A9284600F0DBFF4FF42C
:1016C00040630593069602230793089405A92846CC
:1016D00000F0D0FF0AB070BD00380240001C02408C
:1016E00008B50268034B9A4200D008BD00F00AFB1F
:1016F000FBE700BF0010004072B6FEE700B595B0F2
:101700003022002108A807F00FF900230393049367
:101710000593069307930193204A116C41F0805181
:101720001164126C02F080520192019A02931C4BD8
:101730001A6842F480421A601B6803F480430293E3
:10174000029B012308934FF48033099302230E93E5
:101750004FF480020F9206221092A8221192129347
:101760000723139308A801F0C7FE98B90F2303932A
:1017700002230493002305934FF4A05306934FF4E0
:1017800080530793052103A802F002F920B915B090
:101790005DF804FBFFF7B0FFFFF7AEFF0038024033
:1017A0000070004008B500F093FAFFF7A7FFFFF7BD
:1017B00043FFFFF7EDFEFFF773FE00F045F900F081
:1017C0002DFA04F05BFFFFF70DFF04F069FFFEE761
:1017D00000B583B0002200920D4B596C41F480415A
:1017E0005964596C01F48041009100990192196C7F
:1017F00041F0805119641B6C03F080530193019BED
:101800000F216FF0010000F08DFC03B05DF804FBC8
:101810000038024030B589B0044600230193214BC3
:101820001A6C42F010021A641B6C03F0100301934F
:10183000019B02A903A802F081F9069BCBB902F033
:101840005DF903461848A0FB03239B0C013B174896
:10185000174A026040F2E732C2604360002303612E
:101860008360836102F0EEFA054630B1284609B084
:1018700030BD02F043F94300E4E70C4802F07EF982
:1018800005460028F2D1362000F080FC0F2C01D94B
:101890000125EBE700222146362000F043FC054BF2
:1018A0001C60E3E70038024083DE1B438C09002004
:1018B0000010004008000020FEE7FEE7FEE7FEE71C
:1018C000FEE7704708B5024800F0F5FA08BD00BF12
:1018D0005809002008B5024800F0EDFA08BD00BF25
:1018E0005809002008B5024800F0E5FA08BD00BF1D
:1018F0005809002008B5024800F0DDFA08BD00BF15
:101900005809002008B5024802F072FE08BD00BF69
:101910009C0A002008B5024802F078F908BD00BF13
:101920008C09002008B5024800F0B6FD08BD00BFD4
:10193000DC09002008B5024801F0BDFA08BD00BF6F
:10194000E431002008B5024800F0A6FD08BD00BF44
:101950003C0A0020F0B583B0174B1B681A6812F0E0
:10196000100F04D1144802F043FE03B0F0BD00266E
:1019700001961A6801925B680193019B0E4F3846ED
:1019800002F00EFD0D4B1B685B68C3F18003DBB2F8
:101990000B4C237021780B4D0B4B1B682846984746
:1019A00022783146284606F0BFFF2670802229465D
:1019B000384603F00FF8D5E7E40A0020DC090020E0
:1019C0002C0B0020300B0020D8090020012070478C
:1019D00008B506F07FFF162303604FF0FF3008BD07
:1019E00008B54FF0FF31FFF7F3FFFEE710B50346F0
:1019F0000C4A0D490D48006840B10C48006803448A
:101A0000521A934206D8094A136010BD0748084C81
:101A10000460F2E706F05EFF0C2303604FF0FF3036
:101A2000F3E700BF0000022000080000D4090020F6
:101A3000D0390020034AD2F8883043F47003C2F84A
:101A40008830704700ED00E008B50A480A4B036093
:101A50000A4B436000238360C36003610C22426130
:101A60008361C36102F05BFB00B908BDFFF744FE70
:101A7000FBE700BF9C0A00200010014080841E008C
:101A8000F0B58BB000230593069307930893099351
:101A90000368554A934205D00446544A934242D0C3
:101AA0000BB0F0BD00240094514B5A6C42F0100270
:101AB0005A645A6C02F010020092009A01941A6B58
:101AC00042F002021A631A6B02F002020192019ABA
:101AD00002941A6B42F001021A631B6B03F00103BC
:101AE0000293029B802305930227069707940326FF
:101AF00008960725099505A93E4800F0BBFD4FF45F
:101B000000730593069707940896099505A93A4826
:101B100000F0B0FD22460521252000F003FB252022
:101B200000F034FBBCE700250395314B5A6C42F0C2
:101B300020025A645A6C02F020020392039A049520
:101B40001A6B42F040021A631B6B03F040030493CC
:101B5000049B4FF4844305930223069307950323C4
:101B600008930823099305A9244800F083FD24481D
:101B7000244B03604FF0206343608560C5604FF4E1
:101B80008063036145618561C5610562456200F05E
:101B90008BFB18BB1A4BE3639C631B481B4B036016
:101BA0004FF020634360402383600023C3604FF401
:101BB0008062026143618361C3610362436200F03A
:101BC00073FB70B9104BA3639C630022052147206F
:101BD00000F0A8FA472000F0D9FA61E7FFF78CFD82
:101BE000D8E7FFF789FDEDE7001001400014014040
:101BF0000038024000040240000002400018024089
:101C0000DC090020286402403C0A0020A064024055
:101C1000014B1860704700BFD809002010B512486A
:101C2000124B0360124B436000238360C360036167
:101C30000C2242618361C36102F071FA88B90A4CD7
:101C40002268D36843F01003D360204606F0CAFD33
:101C50000848FFF7DDFF80220749204602F0BAFE60
:101C600010BDFFF749FDEAE7E40A00200014014037
:101C70000094110085870008300B0020DFF834D075
:101C8000FFF7D8FE0C480D490D4A002302E0D45856
:101C9000C4500433C4188C42F9D30A4A0A4C0023B6
:101CA00001E013600432A242FBD306F019FEFFF7F5
:101CB00079FD704700000220000000203C09002050
:101CC000889C00083C090020CC390020FEE7000079
:101CD00008B50B4B1A6842F400721A601A6842F495
:101CE00080621A601A6842F480721A60032000F061
:101CF00007FA0F20FFF78EFDFFF76AFD002008BDF1
:101D0000003C0240034A1168034B1B780B441360EC
:101D1000704700BFB00B002004000020014B186882
:101D2000704700BFB00B002038B50446FFF7F6FF40
:101D30000546B4F1FF3F02D0044B1B781C44FFF76B
:101D4000EDFF401BA042FAD338BD00BF04000020C5
:101D5000002800F0A18038B5044690F82030D3B1B7
:101D60002268136843F001031360FFF7D7FF0546AD
:101D700023685A6812F0010F10D1FFF7CFFF401B04
:101D80000A28F5D9636A43F400336362052384F8B3
:101D90002030012038BDFFF7A3FBE1E71A6822F0ED
:101DA00002021A60FFF7BAFF054623685A6812F06C
:101DB000020F0DD0FFF7B2FF401B0A28F5D9636A66
:101DC00043F400336362052384F820300120E1E707
:101DD000227E012A3DD01A6822F080021A60637EBA
:101DE000012B3BD02268136823F040031360A37ECD
:101DF000012B39D02268136823F020031360E37E9F
:101E0000012B37D02268136843F010031360237F3F
:101E1000012B35D02268136823F008031360637F19
:101E2000012B33D02268136823F004031360A368E6
:101E3000E268134322691343626913436268013AFB
:101E400021681343CB6100206062012384F82030B5
:101E5000A0E71A6842F080021A60C0E7226813689F
:101E600043F040031360C2E72268136843F0200385
:101E70001360C4E72268136823F010031360C6E7F9
:101E80002268136843F008031360C8E722681368E8
:101E900043F004031360CAE701207047704770479E
:101EA000704770477047704770477047704770477A
:101EB0007047704770472DE9F84F054603685C6925
:101EC000D3F804809F68D3F80CB0D3F810A0D3F8EF
:101ED000189014F001063BD017F0010616D001222D
:101EE0009A6017F0020F08D117F0040F0CD117F009
:101EF000080606D04FF4805608E0FFF7CFFF002613
:101F000004E0FFF7CEFF01E04FF4006617F4807F96
:101F10000DD02B684FF480729A6017F4007F40F068
:101F2000868017F4806F00F0868046F4005617F420
:101F3000803F0DD02B684FF480329A6017F4003F39
:101F400040F0838017F4802F00F0838046F4004631
:101F500014F0080F07D01BF0100F04D046F40076E1
:101F60002B681022DA6014F0040F02D01BF0080F67
:101F700079D114F0020F04D02B68DB6813F0030F43
:101F800078D114F0400F07D01AF0100F04D046F4A7
:101F900080662B6810221A6114F0200F02D01AF00C
:101FA000080F6BD114F0100F04D02B681B6913F0CD
:101FB000030F6AD114F4003F02D018F0100F68D15B
:101FC00014F4803F02D018F0080F69D114F4004FC8
:101FD0007AD018F0040F74D014F4807F04D019F074
:101FE000010F01D046F0010614F4007F04D019F06F
:101FF000020F01D046F0020614F4806F04D019F0ED
:10200000040F01D046F0040614F4006F59D019F003
:10201000700956D0B9F1400F65D058D8B9F1200FEA
:102020005ED0B9F1300F42D146F0200644E0284698
:10203000FFF735FF7BE717F4006F02D046F48046C8
:1020400075E72846FFF72EFF71E72846FFF728FFC0
:102050007EE717F4002F02D046F4803678E7284652
:10206000FFF721FF74E72B680822DA602846FFF7A4
:102070001CFF7EE72846FFF717FF82E72B68082240
:102080001A612846FFF713FF8CE72846FFF70EFF7B
:1020900090E72B6810225A602846FFF709FF8FE768
:1020A0002B6808225A602846FFF703FF8EE7B9F134
:1020B000100F01D146F008062A68936923F07003D7
:1020C00093612B6804225A609EB9BDE8F88FB9F17C
:1020D000500F0BD0B9F1600FEED146F48076EBE7EC
:1020E00046F01006E8E746F04006E5E746F08006D1
:1020F000E2E76B6A1E436E622846FFF7DBFEE4E709
:10210000074AD36823F4E0631B041B0C000200F4AD
:10211000E060034343F0BF6343F40033D360704790
:1021200000ED00E030B4174BDB68C3F30223C3F1CA
:102130000704042C28BF04241D1D062D18D9033BB9
:102140004FF0FF3505FA04F421EA0401994005FA3D
:1021500003F322EA0303194300280BDB0901C9B288
:1021600000F1604000F5614080F8001330BC70471A
:102170000023E5E700F00F000901C9B2024B195432
:10218000F4E700BF00ED00E014ED00E0002807DBFD
:1021900000F01F02400901239340024A42F8203018
:1021A000704700BF00E100E030B405682C6824F4FB
:1021B00080242C60046863608368402B05D003682A
:1021C00099600368DA6030BC704703689A600368FE
:1021D000D960F8E710B40368D9B210390C4AA2FBF1
:1021E000014212090B4CA25CC2655F2909D923F494
:1021F0007F7323F0030304338365806D5DF8044B24
:10220000704723F47F7323F003038365F5E700BF72
:10221000ABAAAAAA309B0008836A826992B9012BF3
:102220000AD0022B02D00BB100207047C36A13F012
:10223000807F28D100207047C36AB3F1C07F24D0CB
:1022400000207047B2F5005F09D0022B25D9032B7F
:1022500025D1C36A13F0807F23D100207047032B60
:1022600003D8DFE803F01404140A00207047C36A9F
:1022700013F0807F0DD100207047C36AB3F1C07F97
:1022800009D00020704701207047012070470120CD
:1022900070470120704701207047012070470020DF
:1022A000704701207047000070B50446FFF736FD07
:1022B000002C5BD00546022384F83530002384F8D7
:1022C00034302268136823F00103136023681A680E
:1022D00012F0010F0AD0FFF721FD431B052BF5D9A2
:1022E00020236365032084F8350070BD1A682048F8
:1022F00010406168A2680A43E1680A4321690A4301
:1023000061690A43A1690A43E1690A43216A0A43F0
:102310000243616A04291ED01A602668756925F097
:102320000705636A1D43042B07D1A36A1D43E36AB3
:102330001BB12046FFF770FF90B975612046FFF78B
:1023400049FFE26D3F2393408360002060650123D5
:1023500084F83530C9E7E16A206B01430A43DBE7C3
:1023600040236365012084F83500BEE70120BCE707
:102370003F8010F038B50446856D90F83400012890
:102380002BD0012084F8340094F83500C0B2012825
:1023900004D0002384F83430022038BD022084F8B1
:1023A0003500002060652046FFF7FEFEE26D3F230A
:1023B0009340AB602268136843F016031360236CEC
:1023C00023B12268136843F008031360226813687E
:1023D00043F0010313600020DFE70220DDE770B562
:1023E0000446866DFFF79AFC94F83530DBB2022B79
:1023F00006D080236365002384F83430012070BD4B
:1024000005462268136823F0160313602268536997
:1024100023F080035361236CE3B12268136823F037
:10242000080313602268136823F001031360236814
:102430001B6813F0010F11D0FFF770FC431B052B35
:10244000F5D920236365032084F83500002384F840
:102450003430D4E7A36C002BDFD1E3E7E26D3F23F8
:102460009340B360012384F83530002084F83400B1
:10247000C5E790F83530DBB2022B03D080234365EB
:1024800001207047052380F835300268136823F077
:102490000103136000207047F0B583B004460023A9
:1024A0000193724B1D68724BA3FB0535AD0A876D16
:1024B0003E68C26D08239340334210D003681A6807
:1024C00012F0040F0BD01A6822F004021A60C26DD9
:1024D00008239340BB60436D43F001034365E26D05
:1024E00001239340334209D02268526912F0800FD1
:1024F00004D0BB60636D43F002036365E26D0423A7
:102500009340334209D02268126812F0020F04D0BF
:10251000BB60636D43F004036365E26D1023934079
:10252000334224D02268126812F0080F1FD0BB601B
:1025300023681A6812F4802F0DD01B6813F4002F43
:1025400004D1236C9BB12046984710E0A36C73B173
:10255000204698470BE01A6812F4807F03D11A686E
:1025600022F008021A60236C0BB120469847E26DF6
:1025700020239340334255D02268126812F0100F86
:1025800050D0BB6094F83530DBB2052B0ED02368F9
:102590001A6812F4802F33D01B6813F4002F2AD14D
:1025A000636C002B3ED0204698473BE022681368BE
:1025B00023F0160313602268536923F080035361EC
:1025C000236CA3B12268136823F008031360E26D43
:1025D0003F239340BB60012384F83530002384F807
:1025E0003430236D002B3FD0204698473CE0A36C4D
:1025F000002BE7D1EBE7E36BA3B12046984711E04E
:102600001A6812F4807F09D11A6822F010021A6049
:10261000012384F83530002384F83430E36B0BB1A8
:1026200020469847636DFBB1636D13F0010F17D01F
:10263000052384F835302268136823F00103136002
:10264000019B01330193AB4204D823681B6813F04C
:10265000010FF5D1012384F83530002384F834309C
:10266000E36C0BB12046984703B0F0BD000000209A
:10267000B5814E1B00230F2B00F2DD80F0B482B039
:102680005DE086685F000324BC4026EA0406CC684F
:10269000BC4034438460466826EA02064C68C4F3B2
:1026A00000129A403243426057E0DC08083450F888
:1026B000247003F0070296000F22B24027EA0207B7
:1026C0000A69B2403A4340F824205AE0072200E069
:1026D0000022B2403A430234574E46F82420574A6B
:1026E0009468EA4324EA05064F6817F4801F01D076
:1026F00045EA0406514CA660E46802EA04064F6805
:1027000017F4001F01D045EA04064C4CE6606468EB
:1027100002EA04064F6817F4003F01D045EA0406B8
:10272000464C6660246822404E6816F4803F01D013
:1027300045EA0402414C226001330F2B78D8012274
:102740009A400C6804EA020532EA0404F4D14C68A9
:1027500004F00304013C012C93D94A6802F00302FF
:10276000032A09D0C4685E000322B24024EA0204AE
:102770008A68B2402243C2604A6802F00302022A19
:1027800093D004685E000322B24024EA02044A683F
:1027900002F00302B240224302604A6812F4403F52
:1027A000CAD000220192264A546C44F480445464F6
:1027B000526C02F480420192019A9C08A61C1E4AA7
:1027C00052F8267003F0030296000F22B24027EA67
:1027D00002071C4A90423FF47BAF02F580629042B0
:1027E0001AD002F58062904218D002F580629042C1
:1027F00016D002F58062904214D002F580629042B9
:1028000012D002F58062904210D002F580629042B0
:102810003FF45CAF08225CE701225AE7022258E746
:10282000032256E7042254E7052252E7062250E726
:1028300002B0F0BC7047704700380140003C0140D6
:1028400000380240000002400AB18161704709046B
:1028500081617047436901EA030221EA030141EA09
:102860000241816170472DE9F04782B0D0F80080C5
:1028700001EBC10300EB83039A6A5B6A9A4255D865
:1028800007460C46C1469B1A01EBC10200EB8202CF
:10289000D2699A4200D31A4602F1030A4FEA9A0A11
:1028A00015E006F1030A4FEA9A0ABB7904EBC40566
:1028B00007EB8505296A0093B3B2E2B2404602F005
:1028C000CEFB2B6A33442B62AB6A1E44AE6209EB2B
:1028D000441303F510639B699BB2534512D304EB79
:1028E000C40207EB8202916A536A99420AD24BB141
:1028F0005B1A04EBC40207EB8202D6699E42D0D376
:102900001E46CEE704EBC40007EB80077A6ABB6A79
:102910009A420FD804F00F040123A340D8F834489A
:1029200024EA0304C8F83448002000E0012002B083
:10293000BDE8F0870020FAE730B583B0002879D0F1
:102940000446056890F89534C3B1032384F89534A0
:10295000B5F1A04F17D0206802F036F9237C8DF82E
:102960000030231D0ECB206802F06CF870B10223FA
:1029700084F895340125284603B030BD80F894349E
:1029800005F0AAFDE1E70023A371E4E70021206838
:1029900002F07EFD0246B8B90346207998422FD94D
:1029A00003EBC30104EB8101012048750B75CB8556
:1029B00000200876C861086203EBC30104EB8101C3
:1029C00048620133DBB2E8E7022384F8953401253D
:1029D000D1E702EBC20304EB8303002183F8551215
:1029E00083F8542283F85812C3F85C12C3F86012BB
:1029F00002EBC20304EB8303C3F864120132D2B2C8
:102A00009042E6D8237C8DF80030231D0ECB206841
:102A100002F030F9054620B1022384F895340125EF
:102A2000A9E700236374012384F89534206802F039
:102A3000ECFCA0E701259EE7036890F89424012AA6
:102A40001AD010B50446012280F89424DA6812F0F6
:102A5000400F02D0427B012A09D0206802F0AEF874
:102A6000206802F0C4FC002084F8940410BD9A6B26
:102A700042F480329A63F0E70220704770B5044652
:102A80000D460068066C00EB411303F530639A684D
:102A9000A179012911D038498E4256D03DB905EBB4
:102AA000C50304EB8303D3F86432002B5ED0E9B294
:102AB000204605F05DFD002070BD12F0080F09D022
:102AC0002E498E42F7D912F4004FF4D04FF4004251
:102AD0009A60F0E712F0200F02D020229A60EAE715
:102AE00012F0280FE7D125498E4206D912F4004F83
:102AF00003D04FF400429A60DDE705EBC50204EB1A
:102B00008202D2F874121B69C3F31203CB1AC2F803
:102B100068327DB905EBC50204EB8202D2F864226B
:102B20006AB105EBC50204EB8202D2F860120B44D5
:102B3000C2F86032E9B2204605F01AFDBBE704F2A4
:102B40009C42012102F0E6FCF4E712F4004F03D0AE
:102B50004FF400429A60AEE712F0200F01D020221D
:102B60009A60E9B2204605F003FDA4E704F29C4216
:102B7000002102F0CFFC9AE70A31544F0A30544F3B
:102B800038B5044603681D6C03EB4113D3F8081BEA
:102B90000E4A954207D903F5306311F4004F02D075
:102BA0004FF400429A60204605F0DAFC074B9D4244
:102BB00002D9A379012B01D0002038BD04F29C4238
:102BC0000121206802F0A6FCF6E700BF0A30544F4E
:102BD00090F89434012B0CD010B50446012380F8F2
:102BE00094344174006802F0F2FB002084F89404ED
:102BF00010BD02207047F8B507460C4611F0800F53
:102C000029D101F00F0505EBC506B60006F51476CF
:102C10000644311D05EBC50500EB8505002085F850
:102C2000550204F00F040C70C2F30A028A600B71A3
:102C30004A7802B14C83022B1CD097F89434012BB4
:102C40001BD0012387F89434386802F0F0F8002094
:102C500087F89404F8BD01F00F0000EBC001890073
:102C600010313944043100EBC00007EB800001252E
:102C70004575D6E700234B71DFE70220EAE710B580
:102C800004460A4611F0800F20D101F00F0000EB3E
:102C9000C0039B0003F514732344191D00EBC0000F
:102CA00004EB8000002380F8553202F00F020A7016
:102CB00094F89434012B18D0012384F894342068BC
:102CC00002F000F9002084F8940410BD01F00F0018
:102CD00000EBC0039B0010332344191D00EBC00020
:102CE00004EB800001234375DFE70220EDE770B5B8
:102CF000164601F00F0404EBC401890001F51471BC
:102D00000144043104EBC40500EB8505C5F86022DD
:102D1000C5F864320023C5F8683285F8553285F865
:102D200054428279012A04D0006802F0ADF90020F3
:102D300070BDC5F87062F7E701F00F0101EBC1014A
:102D400000EB8101D1F86802704770B5164601F0BA
:102D50000F0404EBC401890010310144043104EB79
:102D6000C40500EB85052A626B620023AB62012378
:102D70006B752C7582799A4204D0006802F084F950
:102D8000002070BD2E63F8E738B501F00F05027919
:102D9000AA4238D304460B4611F0800F1FD101EB35
:102DA000C101890001F514710144043103EBC3032F
:102DB00000EB8303002283F8552201238B700D70F2
:102DC00094F89434012B20D0012384F894342068A3
:102DD00002F0A2FA85B1002084F8940438BD05EB16
:102DE000C501890010310144043105EBC50300EB36
:102DF000830301225A75E0E704F29C42A17920681E
:102E000002F088FBE7E70120E8E70220E6E701F0AF
:102E10000F0302799A4230D310B5044611F0800FA7
:102E20001ED103EBC301890001F514710144043183
:102E300003EBC30200EB8202002082F8550200225D
:102E40008A700B7094F89434012B18D0012384F805
:102E50009434206802F08DFA002084F8940410BDA8
:102E600003EBC301890010310144043103EBC302B9
:102E700000EB820201205075E1E70120704702203B
:102E8000EDE708B511F0800F0CD101F00F0101EB57
:102E9000C101890001F5147101440431006802F098
:102EA0007FF808BD01F00F0101EBC101890010316D
:102EB00001440431F2E72DE9F04F83B0044606687F
:102EC000304602F0E1FA10B103B0BDE8F08F3546AC
:102ED0000746206802F0A7FA0028F5D006F5006B37
:102EE000DBF80830C3F30D23C4F8D434206802F0B3
:102EF0009AFA10F0020F04D02268536903F002031B
:102F00005361206802F08FFA10F0100F13D022687E
:102F1000936923F010039361D6F8208008F00F091D
:102F2000C8F34343022B4CD0062B72D0226893691E
:102F300043F010039361206802F075FA10F4002F3B
:102F400079D1206802F06FFA10F4802F40F0E6800B
:102F5000206802F068FA0028C0F26A81206802F056
:102F600062FA10F4006F0AD0DBF8083013F0010F9A
:102F700040F078812268536903F40063536120684C
:102F800002F051FA10F4805F40F07081206802F086
:102F90004AFA10F4005F40F0C781206802F043FA5B
:102FA00010F0080F40F0D881206802F03CFA10F0D1
:102FB000800F00F0EB81B36923F08003B361012738
:102FC000D8E147F6F07318EA030FAFD04FEA1813B1
:102FD00000934FEAC902019209EBC90A04EB8A0A7D
:102FE000C8F30A12DAF86012304602F06FF9009B5B
:102FF000C3F30A02DAF860321344CAF86032019B64
:103000004B4404EB8303D3F868321A44CAF86822AD
:103010008CE7082204F29C41304602F057F9C8F3CD
:103020000A1809EBC90204EB8202D2F86832434461
:10303000C2F868327AE7206802F0F9F98046B946AA
:1030400035E005EB49130122C3F8082B4946204619
:10305000FFF714FD3DE005EB49130822C3F8082BE8
:1030600049462046FFF78CFD36E009EBC90304EB27
:10307000830393F85732012B44D005EB4913022206
:10308000C3F8082B1AF0200F04D005EB49132022B7
:10309000C3F8082B1AF4005F05D005EB49134FF471
:1030A0000052C3F8082B09F101094FEA5808B8F19A
:1030B000000F3FF446AF18F0010FF4D05FFA89F328
:1030C00000931946206802F0C2F9824610F0010F01
:1030D000B7D11AF0080FBED11AF0100F04D005EBCB
:1030E00049131022C3F8082B1AF0020FCAD07369D3
:1030F00013F0800FB9D0DBF8043043F48063CBF8D1
:103100000430B2E709EBC90304EB8303002283F820
:1031100057220099204605F07BFAAEE7206802F0BE
:103120008EF98046B94625E00099204605F02CFA34
:103130001AF0080F04D005EB49130822C3F8082938
:103140001AF0100F04D005EB49131022C3F8082918
:103150001AF0400F04D005EB49134022C3F80829A8
:103160001AF0020F43D11AF0800F5CD109F1010966
:103170004FEA5808B8F1000F3FF4EAAE18F0010F1B
:10318000F4D05FFA89F300931946206802F068F9D9
:10319000824610F0010FCBD009F00F03012101FA94
:1031A00003F2DBF8343023EA0203CBF8343005EBCA
:1031B0004913C3F80819A3798B42B5D109EBC903A8
:1031C00004EB8303D9691A6A0A441A62B9F1000F41
:1031D000AAD109EBC90304EB83035B6A002BA3D1DB
:1031E00004F29C420121206802F094F99CE74946D0
:1031F000304601F0EFFC09EBC90304EB8303DB7DF0
:10320000012B05D005EB49130222C3F80829AAE7D0
:1032100009EBC90304EB83030022DA750099204609
:1032200005F0FCF9EEE749462046FFF71CFB9DE759
:10323000DBF8043023F00103CBF8043094F8CC34ED
:10324000012B08D0204605F0DDF92268536903F010
:103250000043536182E6002184F8CC14204600F03C
:103260004AF9F2E7204605F0B5F983E6DBF80430C9
:1032700023F00103CBF804301021206801F0AAFCF0
:103280001AE005EB47134FF67F31C3F80819D3F85E
:10329000002922F40012C3F80029C3F8081BD3F850
:1032A000002B22F40012C3F8002BD3F8002B42F0BD
:1032B0000062C3F8002B01372379BB42E1D8DBF869
:1032C0001C3043F00113CBF81C30E37BEBB1DBF88F
:1032D000843043F00B03CBF88430DBF8443043F008
:1032E0000B03CBF84430D6F8003823F4FE63C6F85D
:1032F000003804F29C42A179206802F00BF92268A0
:10330000536903F48053536140E6DBF8143043F40F
:10331000005343F02B03CBF81430DBF8103043F0AC
:103320000B03CBF81030DEE7206802F0E2F82068EB
:1033300001F06CFDE071276800F0DAFB0146E279EC
:10334000384601F0C9FB204605F02FF92268536981
:1033500003F40053536120E6204605F020F922686B
:10336000536903F0080353611EE6F9B22046FFF7E4
:1033700088FD01372379BB4208D907EBC70304EB6B
:10338000830393F85732012BF3D1EEE7206802F064
:103390004AF810F4801F3AD1206802F044F810F483
:1033A000001F71D1206802F03EF810F0804F6DD1FF
:1033B000206802F038F810F0040F3FF485AD236860
:1033C0005D6815F0040F6AD1226853682B4353607F
:1033D0007AE501372379BB421BD905EB4713D3F8B4
:1033E000002907EBC70304EB83031B7E012BF0D1FD
:1033F000002AEEDA07EBC70304EB83030122DA7538
:1034000067F07F01C9B22046FFF73BFDE1E70127E6
:10341000E0E72268536903F480135361BCE701338A
:1034200022799A422AD905EB4312D2F8001B03EB0A
:10343000C30204EB820292F85822012AEFD100293C
:10344000EDDA01F48031D4F8D42402F00102914283
:10345000E5D103EBC30204EB8202012182F857128B
:10346000B26942F08002B261726912F0800FD6D167
:10347000DBF8043043F40073CBF80430226853695E
:1034800003F4001353618DE70123C9E7204605F0DB
:10349000CBF82268536903F08043536188E72046E4
:1034A00005F0C8F890E730B40468606A19B940EADA
:1034B0000240A06218E00D46A36A00EB134000230F
:1034C000691E8B4209D203F1400104EB8101496876
:1034D00000EB11400133DBB2F2E740EA024005F1B4
:1034E0003F0104EB81014860002030BC7047036855
:1034F0005962002070477047002800F0DF8170B5E6
:1035000082B00446036813F0010F3BD0A64B9B68C2
:1035100003F00C03042B2CD0A34B9B6803F00C038B
:10352000082B21D06368B3F5803F4FD0B3F5A02FAF
:1035300052D09D4B1A6822F480321A601A6822F425
:1035400080221A606368002B50D0FEF7E7FB054627
:10355000954B1B6813F4003F14D1FEF7DFFB401BB3
:103560006428F5D90320B0E18F4B5B6813F4800F1A
:10357000D8D08D4B1B6813F4003F03D06368002B39
:1035800000F09E81236813F0020F54D0864B9B6895
:1035900013F00C0F3ED0844B9B6803F00C03082BF8
:1035A00033D0E368002B67D0804B01221A60FEF70E
:1035B000B5FB05467C4B1B6813F0020F53D1FEF799
:1035C000ADFB401B0228F5D903207EE1764A136843
:1035D00043F480331360B5E7734B1A6842F48022DA
:1035E0001A601A6842F480321A60ABE7FEF796FB65
:1035F00005466D4B1B6813F4003FC3D0FEF78EFBEE
:10360000401B6428F5D903205FE1674B5B6813F426
:10361000800FC6D1644B1B6813F0020F03D0E36820
:10362000012B40F04F81604A136823F0F8032169B1
:1036300043EAC1031360236813F0080F40D06369A5
:1036400063B35B4B01221A60FEF768FB0546564BDD
:103650005B6F13F0020F33D1FEF760FB401B0228B3
:10366000F5D9032031E1504A136823F0F8032169AA
:1036700043EAC1031360DEE74C4B00221A60FEF7F9
:103680004DFB0546484B1B6813F0020FD3D0FEF7E5
:1036900045FB401B0228F5D9032016E1444B0022CC
:1036A0001A60FEF73BFB05463F4B5B6F13F0020FC2
:1036B00006D0FEF733FB401B0228F5D9032004E1B6
:1036C000236813F0040F78D0374B1B6C13F0805F26
:1036D0000DD100230193344B1A6C42F080521A64CE
:1036E0001B6C03F080530193019B012500E0002532
:1036F000304B1B6813F4807F21D0A368012B32D09C
:10370000052B36D0284B1A6F22F001021A671A6F68
:1037100022F004021A67A368002B34D0FEF7FEFAE9
:103720000646214B1B6F13F0020F45D1FEF7F6FA48
:10373000801B41F288339842F3D90320C5E01D4A2B
:10374000136843F480731360FEF7E8FA0646194BDA
:103750001B6813F4807FD0D1FEF7E0FA801B0228AB
:10376000F5D90320B1E0104A136F43F0010313674A
:10377000D1E70D4B1A6F42F004021A671A6F42F03C
:1037800001021A67C7E7FEF7C9FA0646064B1B6F28
:1037900013F0020F10D0FEF7C1FA801B41F28833FC
:1037A0009842F3D9032090E00038024000004742DD
:1037B000800E474200700040EDB9A369002B00F075
:1037C0008380494A926802F00C02082A51D0022BE9
:1037D00017D0464B00221A60FEF7A0FA0446424B6F
:1037E0001B6813F0007F42D0FEF798FA001B0228F6
:1037F000F5D9032069E03C4A136C23F0805313642D
:10380000DBE73A4B00221A60FEF788FA0546364B92
:103810001B6813F0007F06D0FEF780FA401B0228D9
:10382000F5D9032051E0E369226A1343626A43EA4F
:103830008213A26A5208013A43EA0243E26A43EA67
:103840000263294A5360294B01221A60FEF766FA87
:103850000446254B1B6813F0007F06D1FEF75EFA85
:10386000001B0228F5D903202FE000202DE00020C6
:103870002BE0012B2BD01C4B5B6803F48001E26929
:10388000914226D103F03F02216A8A4223D1616A24
:1038900047F6C0721A40B2EB811F1ED103F44031CB
:1038A000A26A5208013AB1EB024F18D103F07063DB
:1038B000E26AB3EB026F14D1002006E001207047EA
:1038C000012002E0012000E0002002B070BD0120D4
:1038D000FBE70120F9E70120F7E70120F5E70120E8
:1038E000F3E70120F1E700BF0038024060004742E3
:1038F000F8B5244B9B6803F00C03042B3DD0082B38
:103900003DD1204B5A6802F03F025B6813F4800FF0
:1039100012D01C4B5968C1F3881100231A48A1FB2F
:103920000001FCF755FC174B5B68C3F301430133FF
:103930005B00B0FBF3F023E0124B5B68C3F388132A
:103940005C010025E41A65F10005AE0146EA9466C3
:10395000A701381B66EB0501CC0044EA5074C50092
:10396000E81844F100018B0243EA90538402204698
:1039700019460023FCF72CFCD5E7034800E0034878
:10398000F8BD00BF00380240001BB7000024F4005F
:10399000002800F09B8070B50D4604464F4B1B6815
:1039A00003F007038B4208D2CBB24C4A1370136862
:1039B00003F007038B4240F08B80236813F0020F63
:1039C00017D013F0040F04D0454A936843F4E05332
:1039D0009360236813F0080F04D0414A936843F4BE
:1039E000604393603E4A936823F0F003A1680B4361
:1039F0009360236813F0010F32D06368012B21D04C
:103A00009A1E012A25D9364A126812F0020F61D097
:103A100033498A6822F0030213438B60FEF77EF974
:103A200006462F4B9B6803F00C036268B3EB820FD2
:103A300016D0FEF773F9801B41F288339842F0D913
:103A4000032042E0264A126812F4003FE0D1012030
:103A50003BE0234A126812F0007FD9D1012034E004
:103A60001E4B1B6803F00703AB4207D9EAB21B4B9E
:103A70001A701B6803F00703AB422DD1236813F0C3
:103A8000040F06D0164A936823F4E053E1680B4311
:103A90009360236813F0080F07D0114A936823F44A
:103AA0006043216943EAC1039360FFF721FF0C4B98
:103AB0009B68C3F303130B4AD35CD8400A4B1860CE
:103AC0000A4B1868FDF7A6FE002070BD0120704764
:103AD0000120FAE70120F8E70120F6E7003C024068
:103AE00000380240189B0008000000200800002059
:103AF000014B1868704700BF0000002008B5FFF7B1
:103B0000F7FF044B9B68C3F38223034AD35CD8407E
:103B100008BD00BF00380240289B000808B5FFF729
:103B2000E7FF044B9B68C3F34233034AD35CD8409E
:103B300008BD00BF00380240289B00080F23036027
:103B40000B4B9A6802F0030242609A6802F0F0029E
:103B500082609A6802F4E052C2609B68DB0803F45A
:103B6000E0530361034B1B6803F007030B607047CE
:103B700000380240003C02407047000090F83D30A1
:103B8000DBB2012B37D1022380F83D300268D368C5
:103B900043F00103D3600368194A934220D0B3F184
:103BA000804F1DD0A2F57C42934219D002F580626D
:103BB000934215D002F58062934211D002F578420B
:103BC00093420DD002F57052934209D0A2F594327F
:103BD000934205D01A6842F001021A600020704733
:103BE0009A6802F00702062A07D01A6842F001021A
:103BF0001A6000207047012070470020704700BF06
:103C000000000140704770477047704770B5044628
:103C10000368DE681D6915F0020F10D016F0020F60
:103C20000DD06FF002021A610123037703689B69CC
:103C300013F0030F5ED0FFF7E6FF0023237715F0A4
:103C4000040F12D016F0040F0FD023686FF0040297
:103C50001A610223237723689B6913F4407F4FD0B6
:103C60002046FFF7D0FF0023237715F0080F12D06E
:103C700016F0080F0FD023686FF008021A610423B2
:103C800023772368DB6913F0030F40D02046FFF74A
:103C9000BAFF0023237715F0100F12D016F0100F83
:103CA0000FD023686FF010021A610823237723686E
:103CB000DB6913F4407F31D02046FFF7A4FF0023D7
:103CC000237715F0010F02D016F0010F2DD115F05A
:103CD000800F02D016F0800F2FD115F0400F02D0C8
:103CE00016F0400F31D115F0200F02D016F0200F42
:103CF00033D170BDFFF786FF2046FFF785FF9CE7B5
:103D00002046FFF77FFF2046FFF77EFFABE7204608
:103D1000FFF778FF2046FFF777FFBAE72046FFF767
:103D200071FF2046FFF770FFC9E723686FF00102BB
:103D30001A612046FDF7D4FCC9E723686FF08002C2
:103D40001A61204600F0ABF8C7E723686FF0400225
:103D50001A612046FFF759FFC5E723686FF020027C
:103D60001A61204600F09AF8C3E700000368344A5D
:103D7000904212D0B0F1804F0FD0A2F57C42904219
:103D80000BD002F58062904207D002F5806290422B
:103D900003D002F57842904203D123F070034A68C1
:103DA0001343274A90422AD0B0F1804F27D0A2F582
:103DB0007C42904223D002F5806290421FD002F5EF
:103DC000806290421BD002F57842904217D002F5F3
:103DD0007052904213D002F5806290420FD002F5EB
:103DE000806290420BD0A2F59832904207D002F543
:103DF0008062904203D002F58062904203D123F4A6
:103E00004073CA68134323F080034A691343036075
:103E10008B68C3620B688362094B984203D003F539
:103E20008063984201D10B690363012343610369F5
:103E300013F0010F03D0036923F0010303617047FE
:103E40000000014040B310B5044690F83D30F3B196
:103E5000022384F83D30214651F8040BFFF786FF1A
:103E6000012384F8463084F83E3084F83F3084F8EB
:103E7000403084F8413084F8423084F8433084F88C
:103E8000443084F8453084F83D30002010BD80F87F
:103E90003C30FFF771FEDBE7012070477047704749
:103EA000026802F10C0353E8003F23F0C0030C3218
:103EB00042E800310029F3D1202380F841307047D7
:103EC000026802F10C0353E8003F23F490730C32B4
:103ED00042E800310029F3D1026802F1140353E8EB
:103EE000003F23F00103143242E800310029F3D1EE
:103EF000036B012B05D0202380F84230002303639D
:103F00007047026802F10C0353E8003F23F01003EE
:103F10000C3242E800310029F3D1ECE790F841304F
:103F2000DBB2212B01D0022070478368B3F5805F9C
:103F300017D0036A5A1C02621A7803685A60C38C4D
:103F40009BB2013B9BB2C3844BB90268D36823F098
:103F50008003D3600268D36843F04003D36000203D
:103F600070470369002BE4D1036A1B880268C3F31E
:103F700008035360036A02330362E0E770B5044646
:103F80000268136923F44053C1680B4313618368CB
:103F90000269134342691343C2691A430168CB683B
:103FA00023F4164323F00C031343CB6002685369D8
:103FB00023F4407381690B4353610368344A93428D
:103FC00006D002F58062934202D0FFF797FD01E030
:103FD000FFF7A4FDE369B3F5004F2AD000260518CA
:103FE00046EB06012D1846EB0101CB0043EA557361
:103FF000EA001546194663689A009B0F281846EB9D
:104000000101FCF7E5F8234DA5FB003251096423BB
:1040100003FB11031B013233A5FB03235B0903F0F0
:10402000F00202EB011203F00F03216813448B60CE
:1040300070BD0026051846EB06012D1846EB010160
:10404000CB0043EA5573EA001546194662683346C9
:10405000921846EB0303281846EB0101FCF7B8F869
:104060000C4DA5FB00325109642303FB1103DB0057
:104070003233A5FB03235B095A0002F4F87202EB0A
:10408000011203F00703216813448B60D0E700BFDF
:10409000001001401F85EB512DE9F04383B0054628
:1040A0000E4617469946DDF828802C68246836EAC3
:1040B00004030CBF01240024BC4228D1B8F1FF3F07
:1040C000F3D0FDF72BFEA0EB0900404523D8B8F153
:1040D000000F22D02B68DA6812F0040FE5D0802E92
:1040E000E3D0402EE1D01A6812F0080FDDD0002492
:1040F00001941A6801925B680193019B2846FFF7BF
:10410000DFFE08236B6485F84040012000E00020BA
:1041100003B0BDE8F0830320FAE70320F8E760B3BB
:1041200010B5044690F8413013B3242384F841308D
:104130002268D36823F40053D3602046FFF71EFFA4
:104140002268136923F4904313612268536923F0B2
:104150002A0353612268D36843F40053D3600020DC
:104160006064202384F8413084F84230606310BDDD
:1041700080F84030FDF784FCD7E7012070472DE937
:10418000F04182B01E4690F84130DBB2202B56D170
:1041900004460D469046002955D00AB901204FE04B
:1041A00000234364212380F84130FDF7B7FD074623
:1041B000A4F82480A4F82680A368B3F5805F02D019
:1041C0004FF0000814E023692BB34FF000080FE014
:1041D000202384F84130032032E038F8023B226883
:1041E000C3F308035360E28C92B2013A92B2E284C4
:1041F000E38C9BB293B100963B460022802120467F
:10420000FFF74AFF0028E3D1002DE6D015F8012B77
:1042100023685A60E7E7A8460025E9E700963B4691
:10422000002240212046FFF737FF18B9202384F8E9
:10423000413005E0202384F84130032000E00220D3
:1042400002B0BDE8F0810120FAE72DE9F04182B02B
:104250001E4690F84230DBB2202B59D104460D4661
:104260009046002958D00AB9012052E00023436447
:10427000222280F842200363FDF750FD0746A4F890
:104280002C80A4F82E80A368B3F5805F02D04FF095
:1042900000081CE0236913B14FF0000817E0A8469E
:1042A000002514E0202384F84230032031E0236805
:1042B0005B68C3F3080328F8023B03E023685B68EC
:1042C0002B700135E28D92B2013A92B2E285E38D14
:1042D0009BB2C3B100963B46002220212046FFF747
:1042E000DBFE0028DED1002DE1D0A368B3F5805FAE
:1042F000E4D013B92369002BE0D023685B6803F096
:104300007F032B70DDE7202384F84230002000E09B
:10431000022002B0BDE8F0810120FAE738B590F83C
:104320004130DBB2202B30D1044600292FD00AB90E
:10433000012038BD01628284C284002343642120AD
:1043400084F84100A06B134DC563A06B124D05644A
:10435000A06B124DC564A06B036520681346021D57
:10436000A06BFEF707F823686FF040021A6022681E
:1043700002F1140353E8003F43F08003143242E893
:1043800000310029F3D10020D3E70220D1E701203A
:10439000CFE700BF274400088F4400089F4400086F
:1043A00010B5044603685A6990F84130DBB2212BFE
:1043B0000AD023685A6902F0400294F84230DBB216
:1043C000222B19D0002010BD02F08002002AF0D06C
:1043D000226802F1140353E8003F23F080031432F3
:1043E00042E800310029F3D1A06B08B1FDF7F7FFD7
:1043F0002046FFF755FDDCE7002AE3D0226802F1F2
:10440000140353E8003F23F04003143242E8003124
:104410000029F3D1E06B08B1FDF7E1FF2046FFF77B
:104420004FFDCFE7704708B50346806B1B681B68DC
:1044300013F4807F1AD10023C384026802F11403AD
:1044400053E8003F23F08003143242E80031002992
:10445000F3D1026802F10C0353E8003F43F040033C
:104460000C3242E800310029F3D108BDFFF7DAFF32
:10447000FBE708B50168CA6822F04002CA60202242
:1044800080F84120FFF7CEFF002008BD704708B537
:10449000806BFFF7FBFF08BD70477047704710B592
:1044A000846B23685A6994F84130DBB2212B10D019
:1044B00023685A6902F0400294F84230DBB2222BA2
:1044C00011D0636C43F0100363642046FFF7E6FFEE
:1044D00010BD02F08002002AEAD00023E3842046C7
:1044E000FFF7DEFCE4E7002AEBD00023E38520465B
:1044F000FFF7E6FCE5E708B5806B0023C385C384BE
:10450000FFF7CCFF08BD704790F84230DBB2222B9A
:1045100069D18368B3F5805F4FD0826AB3F5805F5D
:1045200004D0002B56D10369002B53D103685B687C
:104530001370836A01338362C38D9BB2013B9BB2CC
:10454000C385002B51D100B583B00268D36823F036
:104550002003D3600268D36823F48073D3600268B9
:10456000536923F001035361202380F84230002374
:104570004363036B012B33D100230363026802F111
:104580000C0353E8003F23F010030C3242E80031E3
:104590000029F3D103681A6812F0100F06D0002228
:1045A00001921A6801925B680193019B818DFFF76C
:1045B000AAFF002003B05DF804FB0269002AACD119
:1045C000826A03685B68C3F308031380836A02335B
:1045D0008362B1E703685B6803F07F031370A8E7A9
:1045E000FFF75AFFE5E70220704700207047000000
:1045F00030B583B0044602681368D068516913F07F
:104600000F0505D113F0200F02D010F0200F19D1A3
:104610002DB111F0010119D110F4907F16D1216B49
:1046200001297DD013F0800F03D010F0800F40F0EF
:10463000198113F0400F03D010F0400F40F01681A5
:1046400003B030BD2046FFF75FFFF9E713F0010F1D
:1046500006D010F4807F03D0626C42F001026264E5
:1046600013F0040F04D019B1626C42F002026264CC
:1046700013F0020F04D019B1626C42F004026264BC
:1046800013F0080F07D010F0200F00D119B1626CA1
:1046900042F008026264626C002AD1D013F0200F4D
:1046A00002D010F0200F29D123685B6903F040038A
:1046B000626C12F0080F00D163B32046FFF700FCD4
:1046C00023685B6913F0400F20D0226802F11403C5
:1046D00053E8003F23F04003143242E80031002940
:1046E000F3D1E36B73B1634A1A65E06BFDF7C1FE6A
:1046F0000028A5D0E06B036D9847A1E72046FFF79F
:1047000003FFD1E72046FFF7C9FE99E72046FFF7F0
:10471000C5FE95E72046FFF7C1FE002363648FE7DF
:1047200013F0100F3FF47EAF10F0100F3FF47AAF8C
:10473000002301931368019353680193019B53690C
:1047400013F0400F52D0E26B13685B689BB2002BF2
:104750003FF476AFA18D99427FF672AFE385D369BE
:10476000B3F5807F37D0226802F10C0353E8003F95
:1047700023F480730C3242E800310029F3D122681F
:1047800002F1140353E8003F23F00103143242E81E
:1047900000310029F3D1226802F1140353E8003FED
:1047A00023F04003143242E800310029F3D12023E2
:1047B00084F8423000232363226802F10C0353E89B
:1047C000003F23F010030C3242E800310029F3D1FE
:1047D000E06BFDF704FE02236363A18DE38D9BB2C2
:1047E000C91A89B22046FFF78EFE29E7A18DE38D15
:1047F0009BB2C91A89B2E38D9BB2002B3FF420AF64
:1048000000293FF41DAF226802F10C0353E8003F7A
:1048100023F490730C3242E800300028F3D1226870
:1048200002F1140353E8003F23F00103143242E87D
:1048300000300028F3D1202384F842300023236382
:10484000226802F10C0353E8003F23F010030C32FE
:1048500042E800300028F3D1022363632046FFF7CB
:1048600052FEEDE62046FFF759FBE9E62046FFF74A
:1048700000FEE5E6F744000808B5806B01234363BA
:10488000036B012B02D0FFF708FE08BD818D49089C
:10489000FFF739FEF9E708B50346806B1B681B6814
:1048A00013F4807F2BD10023C385026802F10C032F
:1048B00053E8003F23F480730C3242E800310029B2
:1048C000F3D1026802F1140353E8003F23F001031F
:1048D000143242E800310029F3D1026802F11403D6
:1048E00053E8003F23F04003143242E8003100292E
:1048F000F3D1202380F84230036B012B07D0002333
:104900004363036B012B0FD0FFF7C6FD08BD0268A0
:1049100002F10C0353E8003F23F010030C3242E88D
:1049200000310029F3D1EAE7818DFFF7ECFDEDE7D7
:1049300030B583B004461346816282850025456404
:10494000222280F84220C26B1F48D063E26B1F48CE
:104950001064E26B1E48D064E26B156520680A465D
:10496000011DE06BFDF706FD019523681A680192B1
:104970005B680193019B23695BB1226802F10C0320
:1049800053E8003F43F480730C3242E800310029C1
:10499000F3D1226802F1140353E8003F43F001030E
:1049A000143242E800310029F3D1226802F11403E5
:1049B00053E8003F43F04003143242E8003100293D
:1049C000F3D1002003B030BD9748000879480008B3
:1049D0009F44000808B590F84230DBB2202B08D184
:1049E00049B10AB9012008BD00230363FFF7A0FF06
:1049F000F9E70220F7E70120F5E782B000230193F1
:104A0000019B01330193019BB3F1706F15D80369CA
:104A1000002BF5DA00230193036943F001030361DE
:104A2000019B01330193019BB3F1706F08D80369B7
:104A300013F0010FF4D1002000E0032002B0704712
:104A40000320FBE784B010B5044603A880E80E00FD
:104A50009DF81130012B21D1A36B23F48033A36384
:104A6000E36823F4840323F04003E360E36823F462
:104A70004013E3609DF81830012B0AD02046FFF761
:104A8000BCFF9DF80E30012B1CD0BDE8104004B0D7
:104A90007047E36843F48013E360EFE7E36843F0B3
:104AA0004003E3602046FFF7A8FF9DF8153023B9C7
:104AB000A36B43F48033A363E3E7A36B23F4803356
:104AC000A363DEE7A36843F00603A360A36843F093
:104AD0002003A360D9E70000022A0AD00921C26896
:104AE00022F47052C260C36843EA8123C36000208D
:104AF0007047234B0B44234A93422FD9224B0B443C
:104B0000224A93422CD9A1F57403A3F51053204AED
:104B1000934227D9A1F18373A3F5E7431D4A93423A
:104B200022D31D4B0B441D4A93421FD91C4B0B44EF
:104B30001C4A93421CD31C4B0B441C4A934219D36E
:104B4000A1F1B773A3F55853194A934214D3194BE3
:104B50000B44194A934211D20721C0E70F21BEE747
:104B60000E21BCE70D21BAE70C21B8E70B21B6E70F
:104B70000A21B4E70921B2E70821B0E70621AEE730
:104B8000405327FFFF340C00401E1BFF3F420F0025
:104B90007F4F120020D6130060B6E5FE5FE31600DB
:104BA00000D3CEFE40771B00C05BB3FEC091210056
:104BB00020753800E05459FEE09C4100836843F0C2
:104BC0000103836000207047836823F00103836042
:104BD0000020704782B000230193019B01330193B1
:104BE000019BB3F1706F15D80369002BF5DA002330
:104BF0000193890141F020010161019B013301937F
:104C0000019BB3F1706F08D8036913F0200FF4D142
:104C1000002000E0032002B070470320FBE782B0D1
:104C200000230193019B01330193019BB3F1706F4A
:104C300013D80369002BF5DA0023019310230361D5
:104C4000019B01330193019BB3F1706F08D8036995
:104C500013F0100FF4D1002000E0032002B07047E1
:104C60000320FBE7D0F800381943C0F800180020F3
:104C70007047000084B0F8B5044607A880E80E002D
:104C80002546002306E003F1400204EB82020021E6
:104C9000516001330E2BF6D99DF8267007BBD4F86E
:104CA000043843F00203C4F80438A36B43F4001340
:104CB000A363A36B23F40023A363A36B23F48023D8
:104CC000A3630023C4F8003E9DF82130012B15D1C9
:104CD0009DF81F306BB900212046FFF7C3FF11E09C
:104CE000A36B23F40013A363A36B43F40023A36318
:104CF000E7E701212046FFF7B5FF03E00321204647
:104D0000FFF7B0FF10212046FFF764FF064600B111
:104D100001262046FFF783FF00B1012604F5006C51
:104D20000023CCF81030CCF81430CCF81C300AE05A
:104D3000CBB94FF00060C2F8000900220A614FF6BB
:104D40007F328A6001339DF81CE09E4510D905EB47
:104D5000431202F51061D2F800090028E8DB0020B8
:104D6000C2F80009E9E74FF09040C2F80009E4E713
:104D700000230AE0BBB14FF09040C2F8000B0022C4
:104D80000A614FF67F328A6001339E4510D905EBE8
:104D9000431202F53061D2F8000B0028EADB002054
:104DA000C2F8000BEBE74FF00060C2F8000BE6E73B
:104DB000DCF8103023F48073CCF810300023A361AA
:104DC0006FF0804363619DF81E301BB9A36943F007
:104DD0001003A361A2690C4B1343A3619DF8223019
:104DE0001BB1A36943F00803A361012F04D030462F
:104DF000BDE8F84004B07047A36943F0804343F036
:104E00000403A361F3E700BF00383C80D0F8083802
:104E100013F0060307D0022B07D0062B01D00F207A
:104E2000704702207047002070470220704770B41E
:104E30000C784B78012B22D0D0F81C3804F00F06E8
:104E40000122B24043EA0243C0F81C3800EB441090
:104E5000D0F8003B13F4004F0ED1D0F8003B8A6825
:104E6000C2F30A02097942EA8142134343F08053B4
:104E700043F40043C0F8003B002070BC7047D0F8FA
:104E80001C2804F00F06B3409BB21343C0F81C3833
:104E900000EB4410D0F8003913F4004FECD1D0F8F7
:104EA00000398A68C2F30A02097942EA814242EA79
:104EB00084541C4344F0805444F40044C0F8004936
:104EC000DAE7000030B40B784A78012A24D000EBEE
:104ED0004313D3F8002B002A50DBD0F83C580A7853
:104EE00002F00F02012404FA02F225EA0242C0F89D
:104EF0003C28D0F81C28097801F00F018C4022EAE8
:104F00000444C0F81C48D3F8001B234A0A40C3F8E5
:104F1000002B002030BC704700EB4313D3F800296E
:104F2000002A1EDBD0F83C580A7802F00F02012458
:104F300004FA02F292B225EA0202C0F83C28D0F844
:104F40001C28097801F00F018C40A4B222EA040465
:104F5000C0F81C48D3F80019104A0A40C3F80029C9
:104F6000D7E7D3F8002942F00062C3F80029D3F84C
:104F7000002942F08042C3F80029D3E7D3F8002B80
:104F800042F00062C3F8002BD3F8002B42F08042BD
:104F9000C3F8002BA1E700BF0078F3EF007833ECF3
:104FA00030B482B0034600220192044648780128BA
:104FB0000AD00A7803EB4212D2F8000B00282CDB4F
:104FC000002002B030BC70470A7803EB4212D2F8DE
:104FD0000059002D01DB0020F3E7D2F8005945F01D
:104FE0000065C2F800590A7803EB4213D3F8002990
:104FF00042F08042C3F80029019B01330193019ADA
:1050000042F210739A42DCD80B7804EB4313D3F8C6
:105010000039002BF0DB0020D3E7D2F8000B40F082
:105020000060C2F8000B087803EB4013D3F8002BA4
:1050300042F08042C3F8002B019B01330193019A97
:1050400042F210739A4208D80B7804EB4313D3F85A
:10505000003B002BF0DB0020B3E70120B1E770B488
:105060009DF80C4064B903339D08AC4208D200EBB4
:10507000023303F5805351F8046B1E600134F4E7EA
:10508000002070BC70470000F0B583B00C784B78FE
:10509000012B2FD000EB441606F530631D69ED0C93
:1050A000ED041D611D6925F0FF5525F4C0151D6136
:1050B000002C40F0CD800C690CB18C680C618C68C0
:1050C0000C621D69C4F312042C431C611C6944F476
:1050D00000241C61012A00F0DE800B79012B00F016
:1050E000E080D6F8003B43F00443C6F8003B0020C4
:1050F00003B0F0BD0B6983BB00EB4413D3F8105928
:1051000025F0FF5525F4C015C3F81059D3F81059F0
:1051100045F40025C3F81059D3F81059ED0CED04EF
:10512000C3F81059012A51D000EB4414D4F80039C7
:1051300043F00443C4F800390B79012B6FD00B699D
:10514000002BD4D0D0F834380A7802F00F010122B5
:105150008A401343C0F83438C9E700EB441303F521
:1051600010631D69ED0CED041D611D6925F0FF55EF
:1051700025F4C0151D617CB90E698D68AE4200D959
:105180000D611D6945F400251D611D690E69C6F399
:10519000120635431D61C5E70E698F68F519013D9B
:1051A000B5FBF7F51E69484F07EAC5473E431E6148
:1051B0000E79012EE9D11E6926F0C0461E611E69D6
:1051C0006D0705F0C04535431D61DEE7CB691BB1B6
:1051D00000EB4412C2F814390B79012B08D000EB14
:1051E0004410D0F8003943F00443C0F800397EE79A
:1051F000D0F8083813F4807F08D100EB4412D2F8BD
:10520000003943F00053C2F80039E8E700EB4412DC
:10521000D2F8003943F08053C2F80039DFE7D0F804
:10522000083813F4807F0CD1D4F8003943F00053D0
:10523000C4F8003900920B8A0A78C968FFF70FFF9B
:1052400055E7D4F8003943F08053C4F80039F1E74A
:105250000C6954B91C698D68C5F312052C431C6197
:105260001C6944F400241C6134E78D682C44013C23
:10527000B4FBF5F4A7B205FB07F50D621D69124FEB
:1052800007EAC4442C431C611C690D6AC5F312056E
:105290002C431C611EE7CA68002A3FF41EAF5A6106
:1052A0001BE7D0F8083813F4807F06D1D6F8003B0E
:1052B00043F00053C6F8003B13E7D6F8003B43F039
:1052C0008053C6F8003B0CE70000F81FF0B482B032
:1052D000074608463E46950802F003020023AB420B
:1052E00006D206F58054246840F8044B0133F6E7F3
:1052F0007AB107F580573B6801930025EBB2DC00DB
:10530000019BE34000F8013B0135013A92B2002ACB
:10531000F4D102B0F0BC70470B784A78012A14D05F
:1053200000EB4310D0F8002B002A06DB2BB1D0F89D
:10533000003B23F08043C0F8003BD0F8003B43F42F
:105340000013C0F8003B0020704700EB4310D0F87A
:105350000029002A06DB2BB1D0F8003923F0804366
:10536000C0F80039D0F8003943F40013C0F8003910
:10537000E9E70B784A78012A0ED000EB4310D0F809
:10538000003B23F40013C0F8003B0B79023BDBB277
:10539000012B15D90020704700EB4310D0F80039DD
:1053A00023F40013C0F800390B79023BDBB2012B68
:1053B000F0D8D0F8003943F08053C0F80039E9E75D
:1053C000D0F8003B43F08053C0F8003BE2E7D0F850
:1053D000003823F4FE63C0F80038D0F80038090123
:1053E00001F4FE611943C0F8001800207047D0F89E
:1053F000003E23F00303C0F8003ED0F8043823F049
:105400000203C0F8043800207047D0F8003E23F0B3
:105410000303C0F8003ED0F8043843F00203C0F89C
:105420000438002070474269806910407047D0F806
:10543000183800F50060C0691840000C7047D0F8BB
:10544000183800F50060C069184080B2704700EB62
:105450004111D1F8082B00F50060406910407047F9
:1054600010B4D0F81048D0F8343801F00F02D3400F
:10547000DB01DBB2234300EB411000F510608068D4
:1054800018405DF8044B7047406900F00100704718
:1054900038B50546C36823F0C043C360012913D063
:1054A00019BBC36843F08043C36000240A20FCF7A3
:1054B0003BFC0A342846FFF7E7FF08B1C72CF5D9B3
:1054C000C82C14D0002038BDC36843F00053C3601B
:1054D00000240A20FCF728FC0A342846FFF7D4FFF2
:1054E0000128EDD0C72CF4D9EAE70120EBE7012031
:1054F000E9E7D0F8003923F4FF6323F00703C0F88D
:105500000039D0F8043843F48073C0F80438002020
:105510007047000010B4046C154B9C4203D9D0F8BE
:10552000003B002B16DB0024C0F8104BD0F8104BCA
:1055300044F40024C0F8104BD0F8104B44F0180489
:10554000C0F8104BD0F8104B44F0C044C0F8104BDA
:10555000012903D000205DF8044B7047C0F8142BDC
:10556000D0F8003B43F08023C0F8003BF2E700BFD7
:105570000A30544F10B5D0F8D43203F1B00250F8CD
:1055800022408CB100EB820043687BB194F80002AA
:10559000FF280DD09B6894F8012221469847FF23ED
:1055A00084F80032002010BD0320FCE70020FAE759
:1055B0000020F8E70A230380004870478800002095
:1055C000F8B506460F4F8221384600F04AFC0546E2
:1055D0000121384600F045FC04468121384600F0A0
:1055E00040FC0DB11022AA711CB140222271002290
:1055F000627118B14022027100224271432333804C
:105600000048F8BD44000020F8B506460F4F82213F
:10561000384600F026FC05460121384600F021FC02
:1056200004468121384600F01CFC0DB11022AA71FD
:105630001CB1402222710022627118B14022027115
:1056400000224271432333800048F8BD440000200B
:10565000F8B506460F4F8221384600F002FC054699
:105660000121384600F0FDFB04468121384600F058
:10567000F8FB0DB11022AA711CB100222271022286
:10568000627118B1002202710222427143233380F9
:105690000048F8BD4400002038B5D0F8D432B0330B
:1056A00050F8235095B1044603F014F8C5F80C02E5
:1056B000D4F8D402B03004EB80046368DB6805F5ED
:1056C0000371D5F804029847002038BD0320FCE799
:1056D00070B5D0F8C852D0F8D432B03350F8234067
:1056E00084B301F00F0303EB830200EB82029269A3
:1056F0004AB103EBC30605EB8605EE69B2FBF6F58E
:1057000006FB152292B10023C4F81432D0F8D4322B
:10571000B03300EB830043681B69ABB10A4604F564
:105720000471D4F808029847002070BD03EB83038E
:1057300000EB830300249C612346224603F012F809
:105740002046F2E70320F0E70020EEE7F0B583B053
:10575000D0F8D43203F1B00250F8227000228DF854
:105760000720ADF80420002F7BD004460D460978B1
:1057700011F0600634D0202E6CD1EA882AB311F0E3
:10578000800F0ED16B7887F80032EA883F2A1AD84A
:10579000D2B287F801223946204600F033FF0026B6
:1057A0005CE0B03300EB83035B689B683946687844
:1057B0009847EA88072A28BF07223946204600F082
:1057C0000CFF00264AE04022E3E7B03300EB8304FD
:1057D00063689B68002229466878984700263DE068
:1057E0006F780B2F31D8DFE807F0063930303030D2
:1057F00030303030162690F89C32DBB2032B04D0C8
:10580000294600F06AFB032628E0022201A900F0E5
:10581000E4FE3E4622E090F89C32DBB2032B04D03B
:10582000294600F05AFB032618E001220DF107017A
:1058300000F0D3FE12E090F89C32DBB2032B0DD0C7
:10584000294600F04AFB032608E0294600F045FB04
:10585000032603E0294600F040FB0326304603B050
:10586000F0BD0326FAE738B50446812102F05AFF5D
:10587000002525870121204602F054FFA4F8785125
:105880008221204602F04EFFA4F84C50A4F84E505E
:10589000D4F8D43203F1B00254F822209AB1B033D4
:1058A00004EB83035B685B689847D4F8D432B03369
:1058B00054F8230002F018FFD4F8D432B03344F87F
:1058C0002350C4F8BC52002038BD70B504464FF4D4
:1058D000077002F005FF002849D005464FF4077213
:1058E000002103F021F8D4F8D432B03344F8235027
:1058F000C4F8BC52237C002B41D14FF40073022228
:105900008121204602F003FF012626874FF4007311
:1059100002223146204602F0FAFEA4F878611023F4
:10592000A4F84E30082303228221204602F0EFFE25
:105930000123A4F84C300026C5F80462D4F8D43210
:10594000B03304EB83035B681B689847C5F81462A7
:10595000C5F81862D5F8042262B3257C1DBB4FF44C
:1059600000730121204602F005FF284670BDD4F8DF
:10597000D432B033002244F823200225F5E7402337
:1059800002228121204602F0C2FE01262687402302
:1059900002223146204602F0BAFEA4F878611023B4
:1059A000A4F84E30BEE740230121204602F0E2FE7B
:1059B0000025DAE70225D8E739B1D0F8D432B03380
:1059C00000EB830041600020704703207047D0F84F
:1059D000D432B03350F823302BB1C3F80812C3F8D7
:1059E00010220020704703207047D0F8D432B03323
:1059F00050F823301BB1C3F8041200207047032075
:105A0000704708B5D0F8D432B03350F823209AB19B
:105A1000D2F814320BB1012008BD0123C2F81432B0
:105A2000D2F81032C362D2F81032D2F808228121A3
:105A300002F098FE0020EFE70320EDE710B5D0F864
:105A4000D432B03350F8232092B1047C44B94FF4DF
:105A50000073D2F80422012102F08CFE204610BD12
:105A60004023D2F80422012102F084FE0024F5E74D
:105A70000324F3E798B108B503460020C3F8B80241
:105A8000C3F8C402C3F8D00209B1C3F8B4120121AB
:105A900083F89C121A70184602F0D2FD08BD03204C
:105AA000704710B582B00023ADF8063089B10446C6
:105AB000C0F8B812CB6A23B10DF106009847C4F8BC
:105AC000D002D4F8D8320133C4F8D832002002B062
:105AD00010BD0320FBE708B502F011FE08BD08B5B4
